{
  "_format": "hh-sol-artifact-1",
  "contractName": "CredentialRegistry",
  "sourceName": "contracts/CredentialRegistry.sol",
  "abi": [
    {
      "inputs": [],
      "stateMutability": "nonpayable",
      "type": "constructor"
    },
    {
      "anonymous": false,
      "inputs": [
        {
          "indexed": true,
          "internalType": "address",
          "name": "issuer",
          "type": "address"
        },
        {
          "indexed": true,
          "internalType": "address",
          "name": "student",
          "type": "address"
        },
        {
          "indexed": true,
          "internalType": "uint256",
          "name": "idx",
          "type": "uint256"
        },
        {
          "indexed": false,
          "internalType": "bytes32",
          "name": "vcHash",
          "type": "bytes32"
        }
      ],
      "name": "Issued",
      "type": "event"
    },
    {
      "anonymous": false,
      "inputs": [
        {
          "indexed": true,
          "internalType": "address",
          "name": "issuer",
          "type": "address"
        },
        {
          "indexed": true,
          "internalType": "address",
          "name": "student",
          "type": "address"
        },
        {
          "indexed": true,
          "internalType": "uint256",
          "name": "idx",
          "type": "uint256"
        }
      ],
      "name": "Revoked",
      "type": "event"
    },
    {
      "inputs": [
        {
          "internalType": "address",
          "name": "student",
          "type": "address"
        }
      ],
      "name": "getCount",
      "outputs": [
        {
          "internalType": "uint256",
          "name": "",
          "type": "uint256"
        }
      ],
      "stateMutability": "view",
      "type": "function"
    },
    {
      "inputs": [
        {
          "internalType": "address",
          "name": "student",
          "type": "address"
        },
        {
          "internalType": "uint256",
          "name": "idx",
          "type": "uint256"
        }
      ],
      "name": "getCred",
      "outputs": [
        {
          "internalType": "address",
          "name": "issuer",
          "type": "address"
        },
        {
          "internalType": "bytes32",
          "name": "vcHash",
          "type": "bytes32"
        },
        {
          "internalType": "string",
          "name": "cid",
          "type": "string"
        },
        {
          "internalType": "uint64",
          "name": "issuedAt",
          "type": "uint64"
        },
        {
          "internalType": "bool",
          "name": "revoked",
          "type": "bool"
        }
      ],
      "stateMutability": "view",
      "type": "function"
    },
    {
      "inputs": [
        {
          "internalType": "address",
          "name": "",
          "type": "address"
        }
      ],
      "name": "isIssuer",
      "outputs": [
        {
          "internalType": "bool",
          "name": "",
          "type": "bool"
        }
      ],
      "stateMutability": "view",
      "type": "function"
    },
    {
      "inputs": [
        {
          "internalType": "address",
          "name": "student",
          "type": "address"
        },
        {
          "internalType": "bytes32",
          "name": "vcHash",
          "type": "bytes32"
        },
        {
          "internalType": "string",
          "name": "cid",
          "type": "string"
        }
      ],
      "name": "issue",
      "outputs": [],
      "stateMutability": "nonpayable",
      "type": "function"
    },
    {
      "inputs": [],
      "name": "owner",
      "outputs": [
        {
          "internalType": "address",
          "name": "",
          "type": "address"
        }
      ],
      "stateMutability": "view",
      "type": "function"
    },
    {
      "inputs": [
        {
          "internalType": "address",
          "name": "student",
          "type": "address"
        },
        {
          "internalType": "uint256",
          "name": "idx",
          "type": "uint256"
        }
      ],
      "name": "revoke",
      "outputs": [],
      "stateMutability": "nonpayable",
      "type": "function"
    },
    {
      "inputs": [
        {
          "internalType": "address",
          "name": "issuer",
          "type": "address"
        },
        {
          "internalType": "bool",
          "name": "enabled",
          "type": "bool"
        }
      ],
      "name": "setIssuer",
      "outputs": [],
      "stateMutability": "nonpayable",
      "type": "function"
    }
  ],
  "bytecode": "0x608060405234801561001057600080fd5b5033600260006101000a81548173ffffffffffffffffffffffffffffffffffffffff021916908373ffffffffffffffffffffffffffffffffffffffff16021790555060018060003373ffffffffffffffffffffffffffffffffffffffff1673ffffffffffffffffffffffffffffffffffffffff16815260200190815260200160002060006101000a81548160ff0219169083151502179055506113a6806100b86000396000f3fe608060405234801561001057600080fd5b506004361061007d5760003560e01c80637d925ef41161005b5780637d925ef4146100ea578063877b9a671461011e5780638da5cb5b1461014e578063eac449d91461016c5761007d565b8063495289be146100825780634f0cd27b1461009e578063600a1aef146100ce575b600080fd5b61009c60048036038101906100979190610a7a565b610188565b005b6100b860048036038101906100b39190610aba565b610273565b6040516100c59190610b00565b60405180910390f35b6100e860048036038101906100e39190610bb6565b6102be565b005b61010460048036038101906100ff9190610c56565b6105b0565b604051610115959493929190610d76565b60405180910390f35b61013860048036038101906101339190610aba565b610714565b6040516101459190610dd0565b60405180910390f35b610156610734565b6040516101639190610deb565b60405180910390f35b61018660048036038101906101819190610c56565b61075a565b005b600260009054906101000a900473ffffffffffffffffffffffffffffffffffffffff1673ffffffffffffffffffffffffffffffffffffffff163373ffffffffffffffffffffffffffffffffffffffff1614610218576040517f08c379a000000000000000000000000000000000000000000000000000000000815260040161020f90610e52565b60405180910390fd5b80600160008473ffffffffffffffffffffffffffffffffffffffff1673ffffffffffffffffffffffffffffffffffffffff16815260200190815260200160002060006101000a81548160ff0219169083151502179055505050565b60008060008373ffffffffffffffffffffffffffffffffffffffff1673ffffffffffffffffffffffffffffffffffffffff168152602001908152602001600020805490509050919050565b600160003373ffffffffffffffffffffffffffffffffffffffff1673ffffffffffffffffffffffffffffffffffffffff16815260200190815260200160002060009054906101000a900460ff1661034a576040517f08c379a000000000000000000000000000000000000000000000000000000000815260040161034190610ebe565b60405180910390fd5b6000808573ffffffffffffffffffffffffffffffffffffffff1673ffffffffffffffffffffffffffffffffffffffff1681526020019081526020016000206040518060a001604052803373ffffffffffffffffffffffffffffffffffffffff16815260200185815260200184848080601f016020809104026020016040519081016040528093929190818152602001838380828437600081840152601f19601f8201169050808301925050505050505081526020014267ffffffffffffffff16815260200160001515815250908060018154018082558091505060019003906000526020600020906004020160009091909190915060008201518160000160006101000a81548173ffffffffffffffffffffffffffffffffffffffff021916908373ffffffffffffffffffffffffffffffffffffffff1602179055506020820151816001015560408201518160020190816104a59190611119565b5060608201518160030160006101000a81548167ffffffffffffffff021916908367ffffffffffffffff16021790555060808201518160030160086101000a81548160ff021916908315150217905550505060016000808673ffffffffffffffffffffffffffffffffffffffff1673ffffffffffffffffffffffffffffffffffffffff16815260200190815260200160002080549050610545919061121a565b8473ffffffffffffffffffffffffffffffffffffffff163373ffffffffffffffffffffffffffffffffffffffff167f98ed0c917d670d1ace6af4fdcdcb02f030b47356ff81dffb145c79cbabb6ad7c866040516105a2919061124e565b60405180910390a450505050565b600080606060008060008060008973ffffffffffffffffffffffffffffffffffffffff1673ffffffffffffffffffffffffffffffffffffffff168152602001908152602001600020878154811061060a57610609611269565b5b906000526020600020906004020190508060000160009054906101000a900473ffffffffffffffffffffffffffffffffffffffff168160010154826002018360030160009054906101000a900467ffffffffffffffff168460030160089054906101000a900460ff1682805461067f90610f3c565b80601f01602080910402602001604051908101604052809291908181526020018280546106ab90610f3c565b80156106f85780601f106106cd576101008083540402835291602001916106f8565b820191906000526020600020905b8154815290600101906020018083116106db57829003601f168201915b5050505050925095509550955095509550509295509295909350565b60016020528060005260406000206000915054906101000a900460ff1681565b600260009054906101000a900473ffffffffffffffffffffffffffffffffffffffff1681565b600160003373ffffffffffffffffffffffffffffffffffffffff1673ffffffffffffffffffffffffffffffffffffffff16815260200190815260200160002060009054906101000a900460ff166107e6576040517f08c379a00000000000000000000000000000000000000000000000000000000081526004016107dd90610ebe565b60405180910390fd5b6000808373ffffffffffffffffffffffffffffffffffffffff1673ffffffffffffffffffffffffffffffffffffffff168152602001908152602001600020805490508110610869576040517f08c379a0000000000000000000000000000000000000000000000000000000008152600401610860906112e4565b60405180910390fd5b60008060008473ffffffffffffffffffffffffffffffffffffffff1673ffffffffffffffffffffffffffffffffffffffff16815260200190815260200160002082815481106108bb576108ba611269565b5b906000526020600020906004020190503373ffffffffffffffffffffffffffffffffffffffff168160000160009054906101000a900473ffffffffffffffffffffffffffffffffffffffff1673ffffffffffffffffffffffffffffffffffffffff161461095d576040517f08c379a000000000000000000000000000000000000000000000000000000000815260040161095490611350565b60405180910390fd5b60018160030160086101000a81548160ff021916908315150217905550818373ffffffffffffffffffffffffffffffffffffffff163373ffffffffffffffffffffffffffffffffffffffff167f1b0d5fb22a7bd6488427342953b1f43743eda17130144de1ea68a9058355d3fb60405160405180910390a4505050565b600080fd5b600080fd5b600073ffffffffffffffffffffffffffffffffffffffff82169050919050565b6000610a0f826109e4565b9050919050565b610a1f81610a04565b8114610a2a57600080fd5b50565b600081359050610a3c81610a16565b92915050565b60008115159050919050565b610a5781610a42565b8114610a6257600080fd5b50565b600081359050610a7481610a4e565b92915050565b60008060408385031215610a9157610a906109da565b5b6000610a9f85828601610a2d565b9250506020610ab085828601610a65565b9150509250929050565b600060208284031215610ad057610acf6109da565b5b6000610ade84828501610a2d565b91505092915050565b6000819050919050565b610afa81610ae7565b82525050565b6000602082019050610b156000830184610af1565b92915050565b6000819050919050565b610b2e81610b1b565b8114610b3957600080fd5b50565b600081359050610b4b81610b25565b92915050565b600080fd5b600080fd5b600080fd5b60008083601f840112610b7657610b75610b51565b5b8235905067ffffffffffffffff811115610b9357610b92610b56565b5b602083019150836001820283011115610baf57610bae610b5b565b5b9250929050565b60008060008060608587031215610bd057610bcf6109da565b5b6000610bde87828801610a2d565b9450506020610bef87828801610b3c565b935050604085013567ffffffffffffffff811115610c1057610c0f6109df565b5b610c1c87828801610b60565b925092505092959194509250565b610c3381610ae7565b8114610c3e57600080fd5b50565b600081359050610c5081610c2a565b92915050565b60008060408385031215610c6d57610c6c6109da565b5b6000610c7b85828601610a2d565b9250506020610c8c85828601610c41565b9150509250929050565b610c9f81610a04565b82525050565b610cae81610b1b565b82525050565b600081519050919050565b600082825260208201905092915050565b60005b83811015610cee578082015181840152602081019050610cd3565b60008484015250505050565b6000601f19601f8301169050919050565b6000610d1682610cb4565b610d208185610cbf565b9350610d30818560208601610cd0565b610d3981610cfa565b840191505092915050565b600067ffffffffffffffff82169050919050565b610d6181610d44565b82525050565b610d7081610a42565b82525050565b600060a082019050610d8b6000830188610c96565b610d986020830187610ca5565b8181036040830152610daa8186610d0b565b9050610db96060830185610d58565b610dc66080830184610d67565b9695505050505050565b6000602082019050610de56000830184610d67565b92915050565b6000602082019050610e006000830184610c96565b92915050565b7f6f6e6c79206f776e657200000000000000000000000000000000000000000000600082015250565b6000610e3c600a83610cbf565b9150610e4782610e06565b602082019050919050565b60006020820190508181036000830152610e6b81610e2f565b9050919050565b7f697373756572206f6e6c79000000000000000000000000000000000000000000600082015250565b6000610ea8600b83610cbf565b9150610eb382610e72565b602082019050919050565b60006020820190508181036000830152610ed781610e9b565b9050919050565b7f4e487b7100000000000000000000000000000000000000000000000000000000600052604160045260246000fd5b7f4e487b7100000000000000000000000000000000000000000000000000000000600052602260045260246000fd5b60006002820490506001821680610f5457607f821691505b602082108103610f6757610f66610f0d565b5b50919050565b60008190508160005260206000209050919050565b60006020601f8301049050919050565b600082821b905092915050565b600060088302610fcf7fffffffffffffffffffffffffffffffffffffffffffffffffffffffffffffffff82610f92565b610fd98683610f92565b95508019841693508086168417925050509392505050565b6000819050919050565b600061101661101161100c84610ae7565b610ff1565b610ae7565b9050919050565b6000819050919050565b61103083610ffb565b61104461103c8261101d565b848454610f9f565b825550505050565b600090565b61105961104c565b611064818484611027565b505050565b5b818110156110885761107d600082611051565b60018101905061106a565b5050565b601f8211156110cd5761109e81610f6d565b6110a784610f82565b810160208510156110b6578190505b6110ca6110c285610f82565b830182611069565b50505b505050565b600082821c905092915050565b60006110f0600019846008026110d2565b1980831691505092915050565b600061110983836110df565b9150826002028217905092915050565b61112282610cb4565b67ffffffffffffffff81111561113b5761113a610ede565b5b6111458254610f3c565b61115082828561108c565b600060209050601f8311600181146111835760008415611171578287015190505b61117b85826110fd565b8655506111e3565b601f19841661119186610f6d565b60005b828110156111b957848901518255600182019150602085019450602081019050611194565b868310156111d657848901516111d2601f8916826110df565b8355505b6001600288020188555050505b505050505050565b7f4e487b7100000000000000000000000000000000000000000000000000000000600052601160045260246000fd5b600061122582610ae7565b915061123083610ae7565b9250828203905081811115611248576112476111eb565b5b92915050565b60006020820190506112636000830184610ca5565b92915050565b7f4e487b7100000000000000000000000000000000000000000000000000000000600052603260045260246000fd5b7f696e64657820696e76616c696400000000000000000000000000000000000000600082015250565b60006112ce600d83610cbf565b91506112d982611298565b602082019050919050565b600060208201905081810360008301526112fd816112c1565b9050919050565b7f6e6f742069737375657200000000000000000000000000000000000000000000600082015250565b600061133a600a83610cbf565b915061134582611304565b602082019050919050565b600060208201905081810360008301526113698161132d565b905091905056fea264697066735822122000d3b98acfdd80e92e1e17cb256fa3666dbf7095a622f8c403954c5ebc8e8c5164736f6c63430008130033",
  "linkReferences": {},
  "deployedLinkReferences": {}
}