{
  "_format": "hh-sol-artifact-1",
  "contractName": "SoulboundDegree",
  "sourceName": "contracts/SoulboundDegree.sol",
  "abi": [
    {
      "inputs": [
        {
          "internalType": "address",
          "name": "_owner",
          "type": "address"
        }
      ],
      "stateMutability": "nonpayable",
      "type": "constructor"
    },
    {
      "anonymous": false,
      "inputs": [
        {
          "indexed": true,
          "internalType": "address",
          "name": "to",
          "type": "address"
        },
        {
          "indexed": false,
          "internalType": "string",
          "name": "data",
          "type": "string"
        }
      ],
      "name": "Minted",
      "type": "event"
    },
    {
      "inputs": [
        {
          "internalType": "address",
          "name": "",
          "type": "address"
        }
      ],
      "name": "balance",
      "outputs": [
        {
          "internalType": "uint256",
          "name": "",
          "type": "uint256"
        }
      ],
      "stateMutability": "view",
      "type": "function"
    },
    {
      "inputs": [
        {
          "internalType": "address",
          "name": "",
          "type": "address"
        }
      ],
      "name": "metadata",
      "outputs": [
        {
          "internalType": "string",
          "name": "",
          "type": "string"
        }
      ],
      "stateMutability": "view",
      "type": "function"
    },
    {
      "inputs": [
        {
          "internalType": "address",
          "name": "to",
          "type": "address"
        },
        {
          "internalType": "string",
          "name": "data",
          "type": "string"
        }
      ],
      "name": "mint",
      "outputs": [],
      "stateMutability": "nonpayable",
      "type": "function"
    },
    {
      "inputs": [],
      "name": "name",
      "outputs": [
        {
          "internalType": "string",
          "name": "",
          "type": "string"
        }
      ],
      "stateMutability": "view",
      "type": "function"
    },
    {
      "inputs": [],
      "name": "owner",
      "outputs": [
        {
          "internalType": "address",
          "name": "",
          "type": "address"
        }
      ],
      "stateMutability": "view",
      "type": "function"
    },
    {
      "inputs": [],
      "name": "symbol",
      "outputs": [
        {
          "internalType": "string",
          "name": "",
          "type": "string"
        }
      ],
      "stateMutability": "view",
      "type": "function"
    },
    {
      "inputs": [
        {
          "internalType": "address",
          "name": "",
          "type": "address"
        },
        {
          "internalType": "address",
          "name": "",
          "type": "address"
        },
        {
          "internalType": "uint256",
          "name": "",
          "type": "uint256"
        }
      ],
      "name": "transferFrom",
      "outputs": [],
      "stateMutability": "pure",
      "type": "function"
    }
  ],
  "bytecode": "0x60806040526040518060400160405280600f81526020017f536f756c626f756e644465677265650000000000000000000000000000000000815250600090816200004a919062000387565b506040518060400160405280600381526020017f53425400000000000000000000000000000000000000000000000000000000008152506001908162000091919062000387565b503480156200009f57600080fd5b50604051620012d0380380620012d08339818101604052810190620000c59190620004d8565b80600260006101000a81548173ffffffffffffffffffffffffffffffffffffffff021916908373ffffffffffffffffffffffffffffffffffffffff160217905550506200050a565b600081519050919050565b7f4e487b7100000000000000000000000000000000000000000000000000000000600052604160045260246000fd5b7f4e487b7100000000000000000000000000000000000000000000000000000000600052602260045260246000fd5b600060028204905060018216806200018f57607f821691505b602082108103620001a557620001a462000147565b5b50919050565b60008190508160005260206000209050919050565b60006020601f8301049050919050565b600082821b905092915050565b6000600883026200020f7fffffffffffffffffffffffffffffffffffffffffffffffffffffffffffffffff82620001d0565b6200021b8683620001d0565b95508019841693508086168417925050509392505050565b6000819050919050565b6000819050919050565b600062000268620002626200025c8462000233565b6200023d565b62000233565b9050919050565b6000819050919050565b620002848362000247565b6200029c62000293826200026f565b848454620001dd565b825550505050565b600090565b620002b3620002a4565b620002c081848462000279565b505050565b5b81811015620002e857620002dc600082620002a9565b600181019050620002c6565b5050565b601f82111562000337576200030181620001ab565b6200030c84620001c0565b810160208510156200031c578190505b620003346200032b85620001c0565b830182620002c5565b50505b505050565b600082821c905092915050565b60006200035c600019846008026200033c565b1980831691505092915050565b600062000377838362000349565b9150826002028217905092915050565b62000392826200010d565b67ffffffffffffffff811115620003ae57620003ad62000118565b5b620003ba825462000176565b620003c7828285620002ec565b600060209050601f831160018114620003ff5760008415620003ea578287015190505b620003f6858262000369565b86555062000466565b601f1984166200040f86620001ab565b60005b82811015620004395784890151825560018201915060208501945060208101905062000412565b8683101562000459578489015162000455601f89168262000349565b8355505b6001600288020188555050505b505050505050565b600080fd5b600073ffffffffffffffffffffffffffffffffffffffff82169050919050565b6000620004a08262000473565b9050919050565b620004b28162000493565b8114620004be57600080fd5b50565b600081519050620004d281620004a7565b92915050565b600060208284031215620004f157620004f06200046e565b5b60006200050184828501620004c1565b91505092915050565b610db6806200051a6000396000f3fe608060405234801561001057600080fd5b506004361061007d5760003560e01c80638da5cb5b1161005b5780638da5cb5b146100ec57806395d89b411461010a578063d0def52114610128578063e3d670d7146101445761007d565b806306fdde031461008257806323b872dd146100a05780632ba21572146100bc575b600080fd5b61008a610174565b604051610097919061062f565b60405180910390f35b6100ba60048036038101906100b591906106f9565b610202565b005b6100d660048036038101906100d1919061074c565b61023d565b6040516100e3919061062f565b60405180910390f35b6100f46102dd565b6040516101019190610788565b60405180910390f35b610112610303565b60405161011f919061062f565b60405180910390f35b610142600480360381019061013d91906108d8565b610391565b005b61015e6004803603810190610159919061074c565b610587565b60405161016b9190610943565b60405180910390f35b600080546101819061098d565b80601f01602080910402602001604051908101604052809291908181526020018280546101ad9061098d565b80156101fa5780601f106101cf576101008083540402835291602001916101fa565b820191906000526020600020905b8154815290600101906020018083116101dd57829003601f168201915b505050505081565b6040517f08c379a000000000000000000000000000000000000000000000000000000000815260040161023490610a0a565b60405180910390fd5b6004602052806000526040600020600091509050805461025c9061098d565b80601f01602080910402602001604051908101604052809291908181526020018280546102889061098d565b80156102d55780601f106102aa576101008083540402835291602001916102d5565b820191906000526020600020905b8154815290600101906020018083116102b857829003601f168201915b505050505081565b600260009054906101000a900473ffffffffffffffffffffffffffffffffffffffff1681565b600180546103109061098d565b80601f016020809104026020016040519081016040528092919081815260200182805461033c9061098d565b80156103895780601f1061035e57610100808354040283529160200191610389565b820191906000526020600020905b81548152906001019060200180831161036c57829003601f168201915b505050505081565b600260009054906101000a900473ffffffffffffffffffffffffffffffffffffffff1673ffffffffffffffffffffffffffffffffffffffff163373ffffffffffffffffffffffffffffffffffffffff1614610421576040517f08c379a000000000000000000000000000000000000000000000000000000000815260040161041890610a76565b60405180910390fd5b6000600360008473ffffffffffffffffffffffffffffffffffffffff1673ffffffffffffffffffffffffffffffffffffffff16815260200190815260200160002054146104a3576040517f08c379a000000000000000000000000000000000000000000000000000000000815260040161049a90610ae2565b60405180910390fd5b6001600360008473ffffffffffffffffffffffffffffffffffffffff1673ffffffffffffffffffffffffffffffffffffffff1681526020019081526020016000208190555080600460008473ffffffffffffffffffffffffffffffffffffffff1673ffffffffffffffffffffffffffffffffffffffff16815260200190815260200160002090816105349190610cae565b508173ffffffffffffffffffffffffffffffffffffffff167f0c1b180fbb60448c5491c5ddc7c3a923854214b9ff70f90a7821333338971f928260405161057b919061062f565b60405180910390a25050565b60036020528060005260406000206000915090505481565b600081519050919050565b600082825260208201905092915050565b60005b838110156105d95780820151818401526020810190506105be565b60008484015250505050565b6000601f19601f8301169050919050565b60006106018261059f565b61060b81856105aa565b935061061b8185602086016105bb565b610624816105e5565b840191505092915050565b6000602082019050818103600083015261064981846105f6565b905092915050565b6000604051905090565b600080fd5b600080fd5b600073ffffffffffffffffffffffffffffffffffffffff82169050919050565b600061069082610665565b9050919050565b6106a081610685565b81146106ab57600080fd5b50565b6000813590506106bd81610697565b92915050565b6000819050919050565b6106d6816106c3565b81146106e157600080fd5b50565b6000813590506106f3816106cd565b92915050565b6000806000606084860312156107125761071161065b565b5b6000610720868287016106ae565b9350506020610731868287016106ae565b9250506040610742868287016106e4565b9150509250925092565b6000602082840312156107625761076161065b565b5b6000610770848285016106ae565b91505092915050565b61078281610685565b82525050565b600060208201905061079d6000830184610779565b92915050565b600080fd5b600080fd5b7f4e487b7100000000000000000000000000000000000000000000000000000000600052604160045260246000fd5b6107e5826105e5565b810181811067ffffffffffffffff82111715610804576108036107ad565b5b80604052505050565b6000610817610651565b905061082382826107dc565b919050565b600067ffffffffffffffff821115610843576108426107ad565b5b61084c826105e5565b9050602081019050919050565b82818337600083830152505050565b600061087b61087684610828565b61080d565b905082815260208101848484011115610897576108966107a8565b5b6108a2848285610859565b509392505050565b600082601f8301126108bf576108be6107a3565b5b81356108cf848260208601610868565b91505092915050565b600080604083850312156108ef576108ee61065b565b5b60006108fd858286016106ae565b925050602083013567ffffffffffffffff81111561091e5761091d610660565b5b61092a858286016108aa565b9150509250929050565b61093d816106c3565b82525050565b60006020820190506109586000830184610934565b92915050565b7f4e487b7100000000000000000000000000000000000000000000000000000000600052602260045260246000fd5b600060028204905060018216806109a557607f821691505b6020821081036109b8576109b761095e565b5b50919050565b7f536f756c626f756e643a206e6f6e2d7472616e7366657261626c650000000000600082015250565b60006109f4601b836105aa565b91506109ff826109be565b602082019050919050565b60006020820190508181036000830152610a23816109e7565b9050919050565b7f6f6e6c79206f776e657200000000000000000000000000000000000000000000600082015250565b6000610a60600a836105aa565b9150610a6b82610a2a565b602082019050919050565b60006020820190508181036000830152610a8f81610a53565b9050919050565b7f616c7265616479206d696e746564000000000000000000000000000000000000600082015250565b6000610acc600e836105aa565b9150610ad782610a96565b602082019050919050565b60006020820190508181036000830152610afb81610abf565b9050919050565b60008190508160005260206000209050919050565b60006020601f8301049050919050565b600082821b905092915050565b600060088302610b647fffffffffffffffffffffffffffffffffffffffffffffffffffffffffffffffff82610b27565b610b6e8683610b27565b95508019841693508086168417925050509392505050565b6000819050919050565b6000610bab610ba6610ba1846106c3565b610b86565b6106c3565b9050919050565b6000819050919050565b610bc583610b90565b610bd9610bd182610bb2565b848454610b34565b825550505050565b600090565b610bee610be1565b610bf9818484610bbc565b505050565b5b81811015610c1d57610c12600082610be6565b600181019050610bff565b5050565b601f821115610c6257610c3381610b02565b610c3c84610b17565b81016020851015610c4b578190505b610c5f610c5785610b17565b830182610bfe565b50505b505050565b600082821c905092915050565b6000610c8560001984600802610c67565b1980831691505092915050565b6000610c9e8383610c74565b9150826002028217905092915050565b610cb78261059f565b67ffffffffffffffff811115610cd057610ccf6107ad565b5b610cda825461098d565b610ce5828285610c21565b600060209050601f831160018114610d185760008415610d06578287015190505b610d108582610c92565b865550610d78565b601f198416610d2686610b02565b60005b82811015610d4e57848901518255600182019150602085019450602081019050610d29565b86831015610d6b5784890151610d67601f891682610c74565b8355505b6001600288020188555050505b50505050505056fea2646970667358221220155745f0daf178443f923e2b87f4500a5bce41ab60b46c8b08b1f2d3f81280e964736f6c63430008130033",
  "linkReferences": {},
  "deployedLinkReferences": {}
}